:100000000C942E000C94E8010C94E8010C94E80187
:100010000C94E8010C94E8010C94E8010C94E801BC
:100020000C94E8010C94E8010C94E8010C94E801AC
:100030000C94E8010C94E8010C94E8010C94E8019C
:100040000C94E8010C94E8010C94E8010C94E8018C
:100050000C94E801006000700003DE0011241FBE54
:10006000CFE5D8E0DEBFCDBFE4E5F0E040E017C06B
:10007000B591A59135912591059107FD0CC09591FC
:100080008591EF01F92FE82F05900D92A217B30784
:10009000D9F7FE0104C01D92A217B307E1F7EB35B3
:1000A000F40731F70E94C0010C94DA01F894FFCFF5
:1000B000823031F118F4813039F008958330E1F164
:1000C000843009F454C00895442371F0413009F09C
:1000D00068C02BB381E090E002C0880F991F6A9539
:1000E000E2F7822B8BBB08952BB381E090E002C036
:1000F000880F991F6A95E2F7809582238BBB08953C
:10010000442371F0413009F04CC028B381E090E005
:1001100002C0880F991F6A95E2F7822B88BB089569
:1001200028B381E090E002C0880F991F6A95E2F73A
:100130008095822388BB0895442369F0413089F576
:1001400025B381E090E002C0880F991F6A95E2F71D
:10015000822B85BB089525B381E090E002C0880F13
:10016000991F6A95E2F78095822385BB0895442301
:1001700069F04130B1F422B381E090E002C0880F11
:10018000991F6A95E2F7822B82BB089522B381E022
:1001900090E002C0880F991F6A95E2F7809582234C
:0401A00082BB089581
:1001A400CF93C82F8BB38F709C2F907F892B8BBBE1
:1001B40040E061E082E00E94580040E062E082E0BA
:1001C4000E94580041E063E082E00E94580035E05C
:1001D4003A95F1F7000040E063E082E00E945800A5
:1001E4002BB330E1C39FC0011124922F9F70892B40
:1001F4008BBB40E061E082E00E94580040E062E096
:1002040082E00E94580041E063E082E00E945800CE
:1002140085E08A95F1F7000040E063E082E00E9407
:1002240058008FE39FE10197F1F700C00000CF91E0
:0202340008952B
:10023600CF93C82F8BB38F709C2F907F892B8BBB4E
:1002460041E061E082E00E94580040E062E082E026
:100256000E94580041E063E082E00E94580035E0C9
:100266003A95F1F7000040E063E082E00E94580012
:100276002BB330E1C39FC0011124922F9F70892BAD
:100286008BBB40E062E082E00E94580041E061E002
:1002960082E00E94580041E063E082E00E9458003C
:1002A60085E08A95F1F7000040E063E082E00E9475
:1002B60058008FE39FE10197F1F700C00000CF914E
:0202C600089599
:1002C8008FEF8ABB87B38F6087BB2FEF83EF91E0F7
:1002D800215080409040E1F700C0000088E20E9471
:1002E800D20025ED2A95F1F7000082E00E94D200A5
:1002F8008AE08A95F1F700C086E00E94D20095ED69
:100308009A95F1F700008FE00E94D20084E10E94E4
:10031800D2002FEF83EF91E0215080409040E1F729
:1003280000C0000081E00E94D2008FE39FE10197A6
:08033800F1F700C00000089578
:100340000F931F93CF93DF938830A8F48B0190E035
:100350000896880F880F880F0E94D200C0E0D0E076
:1003600007C0F801EC0FFD1F80810E941B01219640
:10037000C830D105B4F3DF91CF911F910F9108954B
:100380000E94640160E670E080E090E00E94A001BD
:1003900068E670E081E090E00E94A00180E80E94A1
:1003A000D20080E090E00E94E50181E090E00E94B0
:0403B000E501FFCF95
:1003B400EC010E94ED010E94EC01CE010E94EE01CD
:0603C400CE010E94EA01D7
:0603CA000E941B010895D2
:0403D0000C94000089
:0403D4000E9456002D
:0203D800089586
:0203DA00089584
:0203DC00089582
:0803DE00001B1B04110E0000BE
:0803E60000000A150A040000E2
:00000001FF
