:100000000C942A000C9465000C9465000C94650017
:100010000C9465000C9465000C9465000C946500CC
:100020000C9465000C9465000C9465000C946500BC
:100030000C9465000C9465000C9465000C946500AC
:100040000C9465000C9465000C9465000C9465009C
:100050000C94650011241FBECFE5D8E0DEBFCDBFF4
:0C0060000E9436000C945600F894FFCF6C
:10006C0081B3886081BB0E9448000E94610081308E
:10007C0019F492B3986092BB8230B9F782B3877F40
:04008C0082BBF3CF71
:100090008AB18B7F8AB983E880BD8AB188608AB9CA
:0C00A0008AB180618AB987E689B90895A9
:1000AC00EC010E946A000E946900CE010E946B0064
:0600BC00CE010E94670066
:0800C2005F9BFECF8CB1089595
:0400CA000C94000092
:0400CE000E94340058
:0200D20008958F
:0200D40008958D
:0200D60008958B
:00000001FF
