:100000000C942A000C9482010C9482010C948201BD
:100010000C9482010C9482010C9482010C94820154
:100020000C9482010C9482010C9482010C94820144
:100030000C9482010C9482010C9482010C94820134
:100040000C9482010C9482010C9482010C94820124
:100050000C94820111241FBECFE5D8E0DEBFCDBFD6
:0C0060000E945B010C947701F894FFCF24
:10006C00823031F118F4813039F008958330E1F1A8
:10007C00843009F454C00895442371F0413009F0E0
:10008C0068C02AB381E090E002C0880F991F6A957E
:10009C00E2F7822B8ABB08952AB381E090E002C07C
:1000AC00880F991F6A95E2F7809582238ABB089581
:1000BC00442371F0413009F04CC027B381E090E04B
:1000CC0002C0880F991F6A95E2F7822B87BB0895AF
:1000DC0027B381E090E002C0880F991F6A95E2F780
:1000EC008095822387BB0895442369F0413089F5BC
:1000FC0024B381E090E002C0880F991F6A95E2F763
:10010C00822B84BB089524B381E090E002C0880F59
:10011C00991F6A95E2F78095822384BB0895442346
:10012C0069F04130B1F421B381E090E002C0880F56
:10013C00991F6A95E2F7822B81BB089521B381E068
:10014C0090E002C0880F991F6A95E2F78095822390
:04015C0081BB0895C6
:10016000823031F118F4813039F008958330E1F1B3
:10017000843009F454C00895442371F0413009F0EB
:1001800068C02BB381E090E002C0880F991F6A9588
:10019000E2F7822B8BBB08952BB381E090E002C085
:1001A000880F991F6A95E2F7809582238BBB08958B
:1001B000442371F0413009F04CC028B381E090E055
:1001C00002C0880F991F6A95E2F7822B88BB0895B9
:1001D00028B381E090E002C0880F991F6A95E2F78A
:1001E0008095822388BB0895442369F0413089F5C6
:1001F00025B381E090E002C0880F991F6A95E2F76D
:10020000822B85BB089525B381E090E002C0880F62
:10021000991F6A95E2F78095822385BB0895442350
:1002200069F04130B1F422B381E090E002C0880F60
:10023000991F6A95E2F7822B82BB089522B381E071
:1002400090E002C0880F991F6A95E2F7809582239B
:0402500082BB0895D0
:10025400823091F018F4813031F029C08330A9F054
:100264008430E1F024C089B390E002C0959587956D
:100274006A95E2F78170089586B390E002C095957F
:1002840087956A95E2F78170089583B390E002C080
:10029400959587956A95E2F78170089580B390E00B
:1002A40002C0959587956A95E2F78170089580E07C
:0202B4000895AB
:1002B60041E062E083E00E94360040E062E082E0D6
:1002C6000E94360060E082E00E942A01811106C089
:1002D60041E062E083E00E94B000F4CF40E062E0DB
:0802E60083E00E94B000EECF9E
:1002EE00EC010E9487010E948601CE010E948801C6
:0602FE00CE010E94840104
:040304000C94000055
:040308000E9434001B
:02030C00089552
:02030E00089550
:0203100008954E
:00000001FF
