:100000000C942D000C9414030C9414030C941403FE
:100010000C9414030C9414030C9414030C94140304
:100020000C9414030C9414030C9414030C94D40136
:100030000C9414030C9414030C9414030C941403E4
:100040000C9414030C9414030C9414030C941403D4
:100050000C94140300600064800011241FBECFE5DF
:10006000D8E0DEBFCDBFE4E5F0E040E017C0B591D9
:10007000A59135912591059107FD0CC0959185912C
:10008000EF01F92FE82F05900D92A217B307D9F7CA
:10009000FE0104C01D92A217B307E1F7E935F4078A
:0E00A00031F70E94A0020C94D502F894FFCF15
:1000AE0010C00E94EE0258F00E94E70240F029F4C0
:1000BE005F3F29F00C94FC0251110C94F6020C9443
:1000CE0011030E94620268F39923B1F3552391F351
:1000DE00951B550BBB27AA2762177307840738F0A9
:1000EE009F5F5F4F220F331F441FAA1FA9F335D006
:1000FE000E2E3AF0E0E832D091505040E695001CBA
:10010E00CAF72BD0FE2F29D0660F771F881FBB1F73
:10011E00261737074807AB07B0E809F0BB0B802D51
:10012E00BF01FF2793585F4F3AF09E3F510578F07D
:10013E000C94FC020C94F6025F3FE4F3983ED4F369
:10014E00869577956795B795F7959F5FC9F7880F51
:10015E00911D9695879597F90895E1E0660F771FA3
:10016E00881FBB1F621773078407BA0720F0621B34
:0E017E00730B840BBA0BEE1F88F7E095089503
:10018C000FC00E94E70238F00E94EE0220F0952387
:10019C0011F00C94FC020C94110311240C94F60233
:1001AC000E94620270F3959FC1F3950F50E0551FAA
:1001BC00629FF001729FBB27F00DB11D639FAA27B0
:1001CC00F00DB11DAA1F649F6627B00DA11D661FFF
:1001DC00829F2227B00DA11D621F739FB00DA11D20
:1001EC00621F839FA00D611D221F749F3327A00DDA
:1001FC00611D231F849F600D211D822F762F6A2F76
:10020C0011249F5750409AF0F1F088234AF0EE0FDA
:10021C00FF1FBB1F661F771F881F91505040A9F707
:10022C009E3F510580F00C94FC020C94F6025F3F4B
:10023C00E4F3983ED4F3869577956795B795F79543
:10024C00E7959F5FC1F7FE2B880F911D96958795BB
:04025C0097F9089571
:1002600011C00E94E70238F00E94EE0220F039F43B
:100270009F3F19F426F40C9411030EF4E095E7FB6C
:100280000C94FC02E92F0E94620258F3BA1762072D
:1002900073078407950720F079F4A6F50C94F5020E
:1002A0000EF4E0950B2EBA2FA02D0B01B901900191
:1002B0000C01CA01A0011124FF27591B99F0593FD5
:1002C00050F4503E68F11A16F040A22F232F342F1D
:1002D0004427585FF3CF469537952795A795F0406B
:1002E0005395C9F77EF41F16BA0B620B730B840B80
:1002F000BAF09150A1F0FF0FBB1F661F771F881F38
:10030000C2F70EC0BA0F621F731F841F48F487958F
:1003100077956795B795F7959E3F08F0B0CF939581
:0E032000880F08F09927EE0F9795879508959E
:10032E00E89409C097FB3EF4909580957095619581
:10033E007F4F8F4F9F4F9923A9F0F92F96E9BB2737
:10034E009395F695879577956795B795F111F8CFB3
:10035E00FAF4BB0F11F460FF1BC06F5F7F4F8F4F1E
:10036E009F4F16C0882311F096E911C0772321F014
:10037E009EE8872F762F05C0662371F096E8862FAC
:10038E0070E060E02AF09A95660F771F881FDAF703
:0A039E00880F9695879597F908954A
:1003A8001F920F920FB60F9211242F933F934F93E2
:1003B8005F936F937F938F939F93AF93BF93EF93C5
:1003C800FF93809160009091610001969093610085
:1003D8008093600080329E4459F4E0916200F0916D
:1003E80063000995109261001092600088ED82BF49
:1003F800FF91EF91BF91AF919F918F917F916F91F5
:100408005F914F913F912F910F900FBE0F901F90CA
:02041800189535
:10041A000E946A0288F09F5798F0B92F9927B7511E
:10042A00B0F0E1F0660F771F881F991F1AF0BA958E
:10043A00C9F714C0B13091F00E94F502B1E00895F5
:10044A000C94F502672F782F8827B85F39F0B93FE7
:10045A00CCF3869577956795B395D9F73EF4909541
:0E046A008095709561957F4F8F4F9F4F08953D
:1004780080E49CE997BD86BD8EB580618EBD8EB542
:1004880088608EBD8FB582608FBD8FB58E7F8FBD22
:100498008FB58F7E8FBD8FB58F7B8FBD8FB58062F7
:1004A8008FBD8FB580688FBD8EB58E7F8EBD8EB5A2
:0C04B80082608EBD8EB58B7F8EBD0895D6
:1004C40057FD9058440F551F59F05F3F71F0479501
:1004D400880F97FB991F61F09F3F79F087950895E6
:1004E400121613061406551FF2CF4695F1DF08C005
:1004F400161617061806991FF1CF86957105610522
:0405040008940895BA
:10050800682F70E080E090E00E94970120E030E0E2
:1005180044E353E40E94060320E030E040E85FE350
:100528000E94E10220E030E04AE754E40E940A0316
:080538000E940D02CB010895A1
:100540000E943C020E94C7020E940203C82F813011
:1005500029F484EB0E9484020E940E03C230A1F7AA
:0C05600080E00E9484020E940E03EECF97
:10056C00092E0394000C11F4882352F0BB0F40F4B5
:10057C00BF2B11F460FF04C06F5F7F4F8F4F9F4FF5
:02058C000895D0
:10058E008AB18B7F8AB983E880BD8AB188608AB9C7
:0C059E008AB180618AB987E689B90895A6
:1005AA00EC010E9419030E941803CE010E941A034B
:0605BA00CE010E941603B1
:0E05C0005058BB27AA270E9430010C94B602A7
:0E05CE0000240A94161617061806090608954A
:0E05DC0000240A94121613061406050608954C
:0E05EA00E894BB2766277727CB0197F9089581
:0C05F80097F99F6780E870E060E00895CC
:080604005F9BFECF8CB108954D
:08060C000E9457000C94B60295
:080614000E94C6000C94B6021E
:06061C009BBD8ABD08959C
:060622009FEF80EC08953B
:040628000C9400002E
:04062C000E945500D3
:0206300008952B
:02063200089529
:02063400089527
:00000001FF
