:100000000C942A000C9476000C9476000C947600E4
:100010000C9476000C9476000C9476000C94760088
:100020000C9476000C9476000C9476000C94760078
:100030000C9476000C9476000C9476000C94760068
:100040000C9476000C9476000C9476000C94760058
:100050000C94760011241FBECFE5D8E0DEBFCDBFE3
:0C0060000E944A000C946B00F894FFCF43
:10006C0097B1906497B997B197B1892B87B986B13D
:10007C00846086B986B1826086B986B1816086B9A2
:08008C0086B1806886B9089571
:1000940081B3886081BB81E00E9436000E945D00CC
:1000A4008536910520F082B3886082BBF7CF82B396
:0600B400877F82BBF3CF41
:1000BA0086B1806486B9349908C024B185B190E0CC
:0C00CA00982F8827820F911D089508953B
:1000D600EC010E947B000E947A00CE010E947C0007
:0600E600CE010E9478002B
:0400EC000C94000070
:0400F0000E94340036
:0200F40008956D
:0200F60008956B
:0200F800089569
:00000001FF
