:100000000C942A000C945D000C945D000C945D002F
:100010000C945D000C945D000C945D000C945D00EC
:100020000C945D000C945D000C945D000C945D00DC
:100030000C945D000C945D000C945D000C945D00CC
:100040000C945D000C945D000C945D000C945D00BC
:100050000C945D0011241FBECFE5D8E0DEBFCDBFFC
:0C0060000E9436000C945200F894FFCF70
:10006C008FEF81BB92B388E0892782BB2FEF89E6A3
:10007C0098E1215080409040E1F700C0000082B32D
:10008C00877F82BB2FEF89E698E12150804090401A
:08009C00E1F700C00000E6CF0F
:1000A400EC010E9462000E946100CE010E94630084
:0600B400CE010E945F0076
:0400BA000C940000A2
:0400BE000E94340068
:0200C20008959F
:0200C40008959D
:0200C60008959B
:00000001FF
