:100000000C942A000C94FC000C94FC000C94FC0052
:100010000C94FC000C94FC000C94FC000C94FC0070
:100020000C94FC000C94FC000C94FC000C94FC0060
:100030000C94FC000C94FC000C94FC000C94FC0050
:100040000C94FC000C94FC000C94FC000C94FC0040
:100050000C94FC0011241FBECFE5D8E0DEBFCDBF5D
:0C0060000E94E1000C94ED00F894FFCF2A
:02006C00410051
:10006E009BB39F70282F207F922B9BBB98B39260DF
:10007E0098BB98B39B7F98BB98B3986098BBEFE9F9
:10008E00FFE03197F1F700C0000098B3977F98BB5F
:10009E002BB3F0E18F9FC0011124922F9F70892BFB
:1000AE008BBB88B3826088BB88B38B7F88BB88B3D9
:1000BE00886088BB8FE99FE00197F1F700C00000D0
:0800CE0088B3877F88BB089509
:1000D6009BB39F70282F207F922B9BBB98B39D7F4D
:1000E60098BB98B39B7F98BB98B3986098BBEFE991
:1000F600FFE03197F1F700C0000098B3977F98BBF7
:100106002BB3F0E18F9FC0011124922F9F70892B92
:100116008BBB88B38D7F88BB88B38B7F88BB88B346
:10012600886088BB8FE99FE00197F1F700C0000067
:0801360088B3877F88BB0895A0
:10013E002FEF83EF91E0215080409040E1F700C017
:10014E00000088E20E946B0025ED2A95F1F7000071
:10015E0082E00E946B008FE39FE10197F1F700C0F0
:10016E00000086E00E946B0095ED9A95F1F7000075
:10017E008FE00E946B0084E10E946B0025ED2A95B2
:10018E00F1F7000081E00E946B008FE39FE1019781
:08019E00F1F700C00000089514
:1001A6008AB18B7F8AB983E880BD8AB188608AB9B3
:0C01B6008AB180618AB987E689B9089592
:1001C2000E949F000E94D3008CE690E0A0E00E9473
:0801D20037000E94F800FDCF88
:1001DA00EC010E9401010E940001CE010E9402016D
:0601EA00CE010E94FE00A0
:0801F0005F9BFECF8CB1089566
:0401F8000C94000063
:0401FC000E94340029
:0202000008955F
:0202020008955D
:0202040008955B
:00000001FF
