:100000000C942A000C9456010C9456010C94560141
:100010000C9456010C9456010C9456010C94560104
:100020000C9456010C9456010C9456010C945601F4
:100030000C9456010C9456010C9456010C945601E4
:100040000C9456010C9456010C9456010C945601D4
:100050000C94560111241FBECFE5D8E0DEBFCDBF02
:0C0060000E943F010C944B01F894FFCF6C
:10006C001F93CF93DF93CDB7DEB764970FB6F89499
:10007C00DEBF0FBECDBF6115710581059105B9F4C9
:10008C002DC02AE030E040E050E00E941D01E1E08C
:10009C00F0E0EC0FFD1FE10FF11D17FDFA95605D0F
:1000AC006083622F732F842F952F1F5F01C010E088
:1000BC00611571058105910521F711500CC0E1E026
:1000CC00F0E0EC0FFD1FE10FF11D17FDFA9580819B
:1000DC000E9481001150112394F703C080E30E9409
:1000EC00810064960FB6F894DEBF0FBECDBFDF91D2
:0600FC00CF911F91089551
:100102009BB39F70282F207F922B9BBB98B392604A
:1001120098BB98B39B7F98BB98B3986098BBEFE964
:10012200FFE03197F1F700C0000098B3977F98BBCA
:100132002BB3F0E18F9FC0011124922F9F70892B66
:100142008BBB88B3826088BB88B38B7F88BB88B344
:10015200886088BB8FE99FE00197F1F700C000003B
:0801620088B3877F88BB089574
:10016A009BB39F70282F207F922B9BBB98B39D7FB8
:10017A0098BB98B39B7F98BB98B3986098BBEFE9FC
:10018A00FFE03197F1F700C0000098B3977F98BB62
:10019A002BB3F0E18F9FC0011124922F9F70892BFE
:1001AA008BBB88B38D7F88BB88B38B7F88BB88B3B2
:1001BA00886088BB8FE99FE00197F1F700C00000D3
:0801CA0088B3877F88BB08950C
:1001D2002FEF83EF91E0215080409040E1F700C083
:1001E200000088E20E94B50025ED2A95F1F7000093
:1001F20082E00E94B5008FE39FE10197F1F700C012
:10020200000086E00E94B50095ED9A95F1F7000096
:100212008FE00E94B50084E10E94B50025ED2A9589
:10022200F1F7000081E00E94B5008FE39FE10197A2
:08023200F1F700C0000008957F
:10023A00A1E21A2EAA1BBB1BFD010DC0AA1FBB1FE0
:10024A00EE1FFF1FA217B307E407F50720F0A21B52
:10025A00B30BE40BF50B661F771F881F991F1A94BF
:10026A0069F760957095809590959B01AC01BD01E9
:04027A00CF01089513
:10027E008FEF8ABB87BB0E94E90060E178E280E0E5
:08028E0090E00E943600FFCF52
:10029600EC010E945B010E945A01CE010E945C01A2
:0602A600CE010E94580188
:0402AC000C940000AE
:0402B0000E94340074
:0202B4000895AB
:0202B6000895A9
:0202B8000895A7
:00000001FF
