:100000000C942D000C9429030C9429030C942903BF
:100010000C9429030C9429030C9429030C942903B0
:100020000C9429030C9429030C9429030C941102B9
:100030000C9429030C9429030C9429030C94290390
:100040000C9429030C9429030C9429030C94290380
:100050000C94290300600064800011241FBECFE5CA
:10006000D8E0DEBFCDBFE4E5F0E040E017C0B591D9
:10007000A59135912591059107FD0CC0959185912C
:10008000EF01F92FE82F05900D92A217B307D9F7CA
:10009000FE0104C01D92A217B307E1F7E935F4078A
:0E00A00031F70E9497010C94EE02F894FFCF06
:1000AE0010C00E94070358F00E94000340F029F48C
:1000BE005F3F29F00C94150351110C940F030C940F
:1000CE0026030E949F0268F39923B1F3552391F3FF
:1000DE00951B550BBB27AA2762177307840738F0A9
:1000EE009F5F5F4F220F331F441FAA1FA9F335D006
:1000FE000E2E3AF0E0E832D091505040E695001CBA
:10010E00CAF72BD0FE2F29D0660F771F881FBB1F73
:10011E00261737074807AB07B0E809F0BB0B802D51
:10012E00BF01FF2793585F4F3AF09E3F510578F07D
:10013E000C9415030C940F035F3FE4F3983ED4F335
:10014E00869577956795B795F7959F5FC9F7880F51
:10015E00911D9695879597F90895E1E0660F771FA3
:10016E00881FBB1F621773078407BA0720F0621B34
:0E017E00730B840BBA0BEE1F88F7E095089503
:10018C000FC00E94000338F00E94070320F0952353
:10019C0011F00C9415030C94260311240C940F03EA
:1001AC000E949F0270F3959FC1F3950F50E0551F6D
:1001BC00629FF001729FBB27F00DB11D639FAA27B0
:1001CC00F00DB11DAA1F649F6627B00DA11D661FFF
:1001DC00829F2227B00DA11D621F739FB00DA11D20
:1001EC00621F839FA00D611D221F749F3327A00DDA
:1001FC00611D231F849F600D211D822F762F6A2F76
:10020C0011249F5750409AF0F1F088234AF0EE0FDA
:10021C00FF1FBB1F661F771F881F91505040A9F707
:10022C009E3F510580F00C9415030C940F035F3F17
:10023C00E4F3983ED4F3869577956795B795F79543
:10024C00E7959F5FC1F7FE2B880F911D96958795BB
:04025C0097F9089571
:1002600011C00E94000338F00E94070320F039F407
:100270009F3F19F426F40C9426030EF4E095E7FB57
:100280000C941503E92F0E949F0258F3BA176207D6
:1002900073078407950720F079F4A6F50C940E03F4
:1002A0000EF4E0950B2EBA2FA02D0B01B901900191
:1002B0000C01CA01A0011124FF27591B99F0593FD5
:1002C00050F4503E68F11A16F040A22F232F342F1D
:1002D0004427585FF3CF469537952795A795F0406B
:1002E0005395C9F77EF41F16BA0B620B730B840B80
:1002F000BAF09150A1F0FF0FBB1F661F771F881F38
:10030000C2F70EC0BA0F621F731F841F48F487958F
:1003100077956795B795F7959E3F08F0B0CF939581
:0E032000880F08F09927EE0F9795879508959E
:10032E008FEF81BB0E94790280E00E94C1020E9481
:10033E0023032FEF83ED90E3215080409040E1F7AF
:10034E0000C000008EE10E94C1020E9423032FEF25
:10035E0083ED90E3215080409040E1F700C0000013
:10036E008CE30E94C1020E9423032FEF83ED90E3E2
:10037E00215080409040E1F700C000008AE50E94C5
:10038E00C1020E9423032FEF83ED90E321508040A2
:0A039E009040E1F700C00000CCCF52
:1003A800E89409C097FB3EF4909580957095619507
:1003B8007F4F8F4F9F4F9923A9F0F92F96E9BB27BD
:1003C8009395F695879577956795B795F111F8CF39
:1003D800FAF4BB0F11F460FF1BC06F5F7F4F8F4FA4
:1003E8009F4F16C0882311F096E911C0772321F09A
:1003F8009EE8872F762F05C0662371F096E8862F32
:1004080070E060E02AF09A95660F771F881FDAF788
:0A041800880F9695879597F90895CF
:100422001F920F920FB60F9211242F933F934F9367
:100432005F936F937F938F939F93AF93BF93EF934A
:10044200FF9380916000909161000196909361000A
:100452008093600080329E4459F4E0916200F091F2
:1004620063000995109261001092600088ED82BFCE
:10047200FF91EF91BF91AF919F918F917F916F917A
:100482005F914F913F912F910F900FBE0F901F9050
:020492001895BB
:100494000E94A70288F09F5798F0B92F9927B75167
:1004A400B0F0E1F0660F771F881F991F1AF0BA9514
:1004B400C9F714C0B13091F00E940E03B1E0089561
:1004C4000C940E03672F782F8827B85F39F0B93F53
:1004D400CCF3869577956795B395D9F73EF49095C7
:0E04E4008095709561957F4F8F4F9F4F0895C3
:1004F20080EA9FE097BD86BD8EB580618EBD8EB5C8
:1005020088608EBD8FB582608FBD8FB58E7F8FBDA7
:100512008FB58F7E8FBD8FB58F7B8FBD8FB580627C
:100522008FBD8FB580688FBD8EB58E7F8EBD8EB527
:0C05320082608EBD8EB58B7F8EBD08955B
:10053E0057FD9058440F551F59F05F3F71F0479586
:10054E00880F97FB991F61F09F3F79F0879508956B
:10055E00121613061406551FF2CF4695F1DF08C08A
:10056E00161617061806991FF1CF869571056105A7
:04057E000894089540
:10058200682F70E080E090E00E94D40120E030E02B
:1005920044E353E40E941B0320E030E040E85FE3C1
:1005A2000E94FA0220E030E04AE754E40E941F036E
:0805B2000E944A02CB010895EA
:1005BA00092E0394000C11F4882352F0BB0F40F467
:1005CA00BF2B11F460FF04C06F5F7F4F8F4F9F4FA7
:0205DA00089582
:1005DC00EC010E942E030E942D03CE010E942F03DA
:0605EC00CE010E942B036A
:0E05F2005058BB27AA270E9430010C94DD024E
:0E06000000240A941616170618060906089517
:0E060E0000240A941216130614060506089519
:0E061C00E894BB2766277727CB0197F908954E
:0C062A0097F99F6780E870E060E0089599
:080636000E9457000C94DD0244
:08063E000E94C6000C94DD02CD
:060646009BBD8ABD089572
:06064C009FEF80EC089511
:040652000C94000004
:040656000E945500A9
:02065A00089501
:02065C000895FF
:02065E000895FD
:00000001FF
