:100000000C942E000C94A5010C94A5010C94A50150
:100010000C94A5010C94A5010C94A5010C94A501C8
:100020000C94A5010C94A5010C94A5010C94A501B8
:100030000C94A5010C94A5010C94A5010C94A501A8
:100040000C94A5010C94A5010C94A5010C94A50198
:100050000C94A501006000700003580011241FBE1D
:10006000CFE5D8E0DEBFCDBFE4E5F0E040E017C06B
:10007000B591A59135912591059107FD0CC09591FC
:100080008591EF01F92FE82F05900D92A217B30784
:10009000D9F7FE0104C01D92A217B307E1F7EB35B3
:1000A000F40731F70E947E010C949A01F894FFCF77
:1000B000CF93DF93CDB7DEB768970FB6F894DEBF66
:1000C0000FBECDBF20E1E0E6F0E0DE011196019029
:1000D0000D922A95E1F724E0298B25E02A8B26E072
:1000E0002B8B27E02C8B1D8A21E02E8B22E02F8B7F
:1000F00023E0288FA0E0B0E058C045B3E1E1F0E094
:10010000EC0FFD1FEA0FFB1F21E030E0008002C072
:10011000220F331F0A94E2F72095242325BB40E0E9
:1001200050E02EC023B3E5E1F0E0EC0FFD1FE40F3B
:10013000F51FE0816E2F30E002C035952795EA95D6
:10014000E2F720FF11C01AC0FA01EE0FFF1FEE0FF9
:10015000FF1F21E030E02C0F3D1FE20FF31FEA0FDD
:10016000FB1F2081FC01208323B330E0062E02C058
:10017000359527950A94E2F720FFE6CF4F5F5F4F52
:10018000443051057CF245B3E1E1F0E0EC0FFD1F96
:10019000EA0FFB1F21E030E0008002C0220F331F76
:1001A0000A94E2F7242B25BB1196A430B1050CF478
:1001B000A4CF68960FB6F894DEBF0FBECDBFDF9117
:0401C000CF9108953E
:1001C4009BB39F70282F207F922B9BBB98B3926088
:1001D40098BB98B39B7F98BB98B3986098BBEFE9A2
:1001E400FFE03197F1F700C0000098B3977F98BB08
:1001F4002BB3F0E18F9FC0011124922F9F70892BA4
:100204008BBB88B3826088BB88B38B7F88BB88B381
:10021400886088BB8FE99FE00197F1F700C0000078
:0802240088B3877F88BB0895B1
:10022C009BB39F70282F207F922B9BBB98B39D7FF5
:10023C0098BB98B39B7F98BB98B3986098BBEFE939
:10024C00FFE03197F1F700C0000098B3977F98BB9F
:10025C002BB3F0E18F9FC0011124922F9F70892B3B
:10026C008BBB88B38D7F88BB88B38B7F88BB88B3EF
:10027C00886088BB8FE99FE00197F1F700C0000010
:08028C0088B3877F88BB089549
:100294002FEF83EF91E0215080409040E1F700C0C0
:1002A400000088E20E94160125ED2A95F1F700006E
:1002B40082E00E9416018FE39FE10197F1F700C0ED
:1002C400000086E00E94160195ED9A95F1F7000072
:1002D4008FE00E94160184E10E94160125ED2A9503
:1002E400F1F7000081E00E9416018FE39FE101977E
:0802F400F1F700C000000895BD
:1002FC00CF93DF930F92CDB7DEB78FEF8ABB87BB5F
:10030C0085BB8FE084BB0E944A0181E60E94E2001B
:10031C0088E70E94E2001982CE0101960E945800E3
:08032C0089810E94E200F8CF74
:10033400EC010E94AA010E94A901CE010E94AB0116
:06034400CE010E94A7019A
:04034A000C9400000F
:04034E000E945600B3
:0203520008950C
:0203540008950A
:02035600089508
:100358003132334134353642373839432A30234431
:00000001FF
