:100000000C942D000C94EC010C94EC010C94EC017C
:100010000C94EC010C94EC010C94EC010C94EC01AC
:100020000C94EC010C94EC010C94EC010C944B013D
:100030000C94EC010C94EC010C94EC010C94EC018C
:100040000C94EC010C94EC010C94EC010C94EC017C
:100050000C94EC0100600064800011241FBECFE509
:10006000D8E0DEBFCDBFE4E5F0E040E017C0B591D9
:10007000A59135912591059107FD0CC0959185912C
:10008000EF01F92FE82F05900D92A217B307D9F7CA
:10009000FE0104C01D92A217B307E1F7E935F4078A
:0E00A00031F70E9484010C94DE01F894FFCF2A
:1000AE00823031F118F4813039F008958330E1F166
:1000BE00843009F454C00895442371F0413009F09E
:1000CE0068C02AB381E090E002C0880F991F6A953C
:1000DE00E2F7822B8ABB08952AB381E090E002C03A
:1000EE00880F991F6A95E2F7809582238ABB08953F
:1000FE00442371F0413009F04CC027B381E090E009
:10010E0002C0880F991F6A95E2F7822B87BB08956C
:10011E0027B381E090E002C0880F991F6A95E2F73D
:10012E008095822387BB0895442369F0413089F579
:10013E0024B381E090E002C0880F991F6A95E2F720
:10014E00822B84BB089524B381E090E002C0880F17
:10015E00991F6A95E2F78095822384BB0895442304
:10016E0069F04130B1F421B381E090E002C0880F14
:10017E00991F6A95E2F7822B81BB089521B381E026
:10018E0090E002C0880F991F6A95E2F7809582234E
:04019E0081BB089584
:1001A200823031F118F4813039F008958330E1F171
:1001B200843009F454C00895442371F0413009F0A9
:1001C20068C02BB381E090E002C0880F991F6A9546
:1001D200E2F7822B8BBB08952BB381E090E002C043
:1001E200880F991F6A95E2F7809582238BBB089549
:1001F200442371F0413009F04CC028B381E090E013
:1002020002C0880F991F6A95E2F7822B88BB089576
:1002120028B381E090E002C0880F991F6A95E2F747
:100222008095822388BB0895442369F0413089F583
:1002320025B381E090E002C0880F991F6A95E2F72A
:10024200822B85BB089525B381E090E002C0880F20
:10025200991F6A95E2F78095822385BB089544230E
:1002620069F04130B1F422B381E090E002C0880F1E
:10027200991F6A95E2F7822B82BB089522B381E02F
:1002820090E002C0880F991F6A95E2F78095822359
:0402920082BB08958E
:100296001F920F920FB60F9211242F933F934F93F5
:1002A6005F936F937F938F939F93AF93BF93EF93D8
:1002B600FF93809160009091610001969093610098
:1002C6008093600080329E4459F4E0916200F09180
:1002D60063000995109261001092600088ED82BF5C
:1002E600FF91EF91BF91AF919F918F917F916F9108
:1002F6005F914F913F912F910F900FBE0F901F90DE
:02030600189548
:1003080085B341E062E00E94570085B341E063E0B5
:100318000E94570041E065E084E00E94570041E0F8
:1003280062E083E00E94D10040E063E083E00E9445
:10033800D1000E94B801C0E0D0E011C0CE010E94F7
:10034800E90124E531E882EF97E021503040804010
:100358009040D9F700C000C00000C851DC4FCF3131
:080368002EE4D20758F3E7CFA1
:100370008FE19EE497BD86BD8EB580618EBD8EB542
:1003800088608EBD8FB582608FBD8FB58E7F8FBD2B
:100390008FB58F7E8FBD8FB58F7B8FBD8FB5806200
:1003A0008FBD8FB580688FBD8EB58E7F8EBD8EB5AB
:0C03B00082608EBD8EB58B7F8EBD0895DF
:1003BC00EC010E94F1010E94F001CE010E94F201B9
:0603CC00CE010E94EE01CB
:0603D2009BBD8ABD0895E9
:0403D8000C94000081
:0403DC000E94550026
:0203E00008957E
:0203E20008957C
:0203E40008957A
:00000001FF
