:100000000C942D000C9457000C94AA000C94AA0098
:100010000C94AA000C94AA000C94AA000C94AA00B8
:100020000C94AA000C94AA000C94AA000C94AA00A8
:100030000C94AA000C94AA000C94AA000C94AA0098
:100040000C94AA000C94AA000C94AA000C94AA0088
:100050000C94AA0000600062800011241FBECFE54E
:10006000D8E0DEBFCDBFE4E5F0E040E017C0B591D9
:10007000A59135912591059107FD0CC0959185912C
:10008000EF01F92FE82F05900D92A217B307D9F7CA
:10009000FE0104C01D92A217B307E1F7E935F4078A
:0E00A00031F70E9496000C948B00F894FFCF6D
:1000AE001F920F920FB60F9211242F933F934F93DF
:1000BE005F936F937F938F939F93AF93BF93EF93C2
:1000CE00FF93E0916000F09161000995FF91EF912F
:1000DE00BF91AF919F918F917F916F915F914F9152
:0E00EE003F912F910F900FBE0F901F9018950D
:1000FC0085B7826085BF85B78E7F85BF8BB78064DF
:0A010C008BBF8FB780688FBF089586
:10011600EC010E94AF000E94AE00CE010E94B0002A
:06012600CE010E94AC00B6
:10012C0081B3886081BB0E947E0085EA90E00E94CA
:04013C00A000FFCF51
:0A0140009093610080936000089521
:0A014A0092B388E0892782BB089574
:040154000C94000007
:040158000E945500AC
:02015C00089504
:02015E00089502
:02016000089500
:00000001FF
